:100000000C9457010C9488010C9488010C9488017D
:100010000C9488010C9488010C9488010C9488013C
:100020000C9488010C9488010C9488010C9488012C
:100030000C9488010C9488010C9488010C9488011C
:100040000C9488010C9488010C9488010C9488010C
:100050000C9488010C9488010C9488010C9456052A
:100060000C9488010C9420050C94F6040C948801DF
:100070000C9488010C9488010C9488010C948801DC
:100080000C9488010C9488010C9488010C948801CC
:100090000C9488010C9488010C9488010C948801BC
:1000A0000C9488010C9488010C9488010C948801AC
:1000B0000C9488010C9488010C9488010C9488019C
:1000C0000C9488010C9488010C9488010C9488018C
:1000D0000C9488010C9488010C9488010C9488017C
:1000E0000C9488010C9445040C94A5040C941703FB
:1000F0000C941C030C94EE020C941D030C9420022F
:100100000C94B6040C946D020C94B7010C94F70295
:100110000C9457040C9409030C944B040C943F0466
:100120000C94FB020C9401030C9413030C948D04A7
:100130000C9481040C948A010C9405030C94E20243
:100140000C94DC020C9499040C94F1020C94C204FB
:100150000C94C6010C94EA020C94E6040C94DA04A4
:100160000C94E6020C946F040C940F030C94DA01C7
:100170000C9478040C94F2040C9475070C94E80128
:100180000C9421030C94CE040C9463040000210011
:10019000240027002A002D00300033000101000058
:1001A000040107010A0100002200250028002B009D
:1001B0002E003100340002010000050108010B018E
:1001C000000020002300260029002C002F00320010
:1001D00000010000030106010901050505050705E9
:1001E00008080808020202020A0A080804040404B3
:1001F00001010101010101010303030303030303DF
:10020000040707070C0C0C0C0C0C0C0C020202026D
:1002100006060606060606060B0B0B0B0B0B0B0B56
:100220000102102020080810204010204080020108
:1002300002010804020101020408102040808040ED
:1002400020100804020180040201804020100804EC
:10025000020108040201010204081020408001028A
:1002600004081020408000000A0B02090C0D0E0843
:10027000070304010000000000000000000000006F
:10028000000000000000000000000000000000006E
:10029000000012111000000000000000000000002B
:1002A000000000000000000000000000750711249D
:1002B0001FBECFEFD1E2DEBFCDBF00E00CBF12E02A
:1002C000A0E0B2E0E8E5FFE000E00BBF02C007906D
:1002D0000D92A833B107D9F722E0A8E3B2E001C03C
:1002E0001D92AE3DB207E1F711E0C7E5D1E000E0B5
:1002F00006C021970109802FFE010E94A207C63582
:10030000D10780E00807A9F70E94A0050C94AA076E
:100310000C940000AF92BF92CF92DF92EF92FF92C7
:100320000F931F93CF93DF936C017B018B01040F1D
:10033000151FEB015E01AE18BF08C017D10759F0B9
:100340006991D601ED91FC910190F081E02DC601FB
:100350001995892B79F7C501DF91CF911F910F91E5
:10036000FF90EF90DF90CF90BF90AF900895FC0189
:10037000538D448D252F30E0842F90E0821B930B0A
:10038000541710F0CF96089501970895FC01918DB0
:10039000828D981761F0A28DAE0FBF2FB11D5D96B3
:1003A0008C91928D9F5F9F73928F90E008958FEF55
:1003B0009FEF0895FC01918D828D981731F0828D09
:1003C000E80FF11D858D90E008958FEF9FEF089560
:1003D000FC01918D228D892F90E0805C9F4F821BC4
:1003E00091098F739927089581E492E00E94E801B2
:1003F00021E0892B09F420E0822F0895FC01A48DCF
:10040000A80FB92FB11DA35ABF4F2C91848D90E036
:1004100001968F739927848FA689B7892C93A08919
:10042000B1898C91837080648C93938D848D9813A3
:1004300006C00288F389E02D80818F7D8083089536
:10044000EF92FF920F931F93CF93DF93EC0181E024
:10045000888F9B8D8C8D98131AC0E889F9898081CB
:1004600085FF15C09FB7F894EE89FF896083E889FE
:10047000F98980818370806480839FBF81E090E0F0
:10048000DF91CF911F910F91FF90EF900895F62E7D
:100490000B8D10E00F5F1F4F0F731127E02E8C8D17
:1004A0008E110CC00FB607FCFACFE889F98980815C
:1004B00085FFF5CFCE010E94FE01F1CFEB8DEC0F51
:1004C000FD2FF11DE35AFF4FF0829FB7F8940B8F79
:1004D000EA89FB8980818062CFCFCF93DF93EC01E3
:1004E000888D8823B9F0AA89BB89E889F9898C911C
:1004F00085FD03C0808186FD0DC00FB607FCF7CFD8
:100500008C9185FFF2CF808185FFEDCFCE010E94D7
:10051000FE01E9CFDF91CF91089580E090E0892B33
:1005200029F00E94F40181110E94000080E090E017
:10053000892B49F080E090E0892B29F00E9400008F
:1005400081110E94000080E090E0892B49F080E05A
:1005500090E0892B29F00E94000081110E94000088
:1005600080E090E0892B49F080E090E0892B29F031
:100570000E94000081110C94000008958150823186
:1005800008F05AC0E82FF0E08827E653FD4F8F4F60
:100590000C94A207EA02EE02DC02E202E6021C036D
:1005A000F102F702FB020103050309030F03130322
:1005B0001C0317031D032103809180008F77809314
:1005C00080000895809180008F7DF9CF8091800018
:1005D000877FF5CF84B58F7784BD089584B58F7DEF
:1005E000FBCF8091B0008F778093B0000895809109
:1005F000B0008F7DF9CF809190008F77809390002D
:100600000895809190008F7DF9CF80919000877F31
:10061000F5CF8091A0008F778093A00008958091FE
:10062000A0008F7DF9CF8091A000877FF5CF8091CA
:1006300020018F77809320010895809120018F7D84
:10064000F9CF80912001877FF5CFCF93DF93282FBB
:1006500030E0F901EA59FD4F8491F901E05EFD4F68
:10066000D491F901E652FE4FC491CC23A1F081113F
:100670000E94BE02EC2FF0E0EE0FFF1FE054FE4F91
:10068000A591B491EC91ED2381E090E009F480E034
:10069000DF91CF91089580E090E0FACF1F93CF9340
:1006A000DF93282F30E0F901EA59FD4F8491F901D9
:1006B000E05EFD4FD491F901E652FE4FC491CC2388
:1006C000A9F0162F81110E94BE02EC2FF0E0EE0F70
:1006D000FF1FEA55FE4FA591B4918FB7F894EC91A6
:1006E000111108C0D095DE23DC938FBFDF91CF912D
:1006F0001F910895DE2BF8CFCF93DF9390E0FC019C
:10070000E05EFD4F249186529E4FFC018491882328
:10071000D1F090E0880F991FFC01E457FE4FA5919E
:10072000B491FC01EA55FE4FC591D49161110EC000
:100730009FB7F8948C91E22FE0958E238C932881BB
:10074000E223E8839FBFDF91CF9108958FB7F8949C
:10075000EC91E22BEC938FBFF6CF3FB7F8948091EA
:100760003D0290913E02A0913F02B091400226B519
:10077000A89B05C02F3F19F00196A11DB11D3FBFD9
:10078000BA2FA92F982F8827BC01CD01620F711DA8
:10079000811D911D42E0660F771F881F991F4A95A2
:1007A000D1F70895CF93DF93FC0101900020E9F782
:1007B0003197AF01481B590BBC0181E492E00E94C4
:1007C0008A01EC0142E050E062E172E081E492E0F3
:1007D0000E948A018C0F9D1FDF91CF91089587E2BF
:1007E0000E942503892B21F085E192E00E94D2032B
:1007F00060E084E00E944E0360E085E00E944E03CA
:1008000060E086E00E944E0360E087E00E944E03B5
:1008100060E086E10E944E0360E088E10E944E03A2
:1008200060E08AE10E944E0360E08CE10E944E038A
:1008300061E08EE10C944E03982FE82FF0E0EA5926
:10084000FD4FE491E150E23108F0CCC0F0E08827A0
:10085000E35DFB4F8F4F0C94A2073F0445044B040C
:1008600057046304F2046F04780481048D0499042E
:10087000A504B604C204F204CE04DA04E60484B586
:10088000806884BD88E787BD089584B5806284BD93
:1008900088E788BD089580918000806880938000FB
:1008A00088E790E090938900809388000895809174
:1008B000800080628093800088E790E090938B00B6
:1008C00080938A00089580918000886080938000E2
:1008D00088E790E090938D0080938C00089580913C
:1008E000B00080688093B00088E78093B3000895DB
:1008F0008091B00080628093B00088E78093B4005C
:1009000008958091900080688093900088E790E03F
:100910009093990080939800089580919000806250
:100920008093900088E790E090939B0080939A00DA
:1009300008958091900088608093900088E790E00F
:1009400090939D0080939C0008958091A000806802
:100950008093A0008091A0008F7B8093A00088E707
:1009600090E09093A9008093A80008958091A00042
:1009700080628093A00088E790E09093AB00809322
:10098000AA0008958091A00088608093A00088E765
:1009900090E09093AD008093AC0008958091200189
:1009A00080688093200188E790E0909329018093EC
:1009B000280108958091200180628093200188E7BA
:1009C00090E090932B0180932A010895809120015B
:1009D00088608093200188E790E090932D018093B8
:1009E0002C01089560E0892F0C944E031F920F9202
:1009F0000FB60F9211240BB60F922F933F934F9384
:100A00005F936F937F938F939F93AF93BF93EF9376
:100A1000FF9381E492E00E94FE01FF91EF91BF916C
:100A2000AF919F918F917F916F915F914F913F9186
:100A30002F910F900BBE0F900FBE0F901F90189527
:100A40001F920F920FB60F9211240BB60F922F9395
:100A50008F939F93EF93FF93E0915102F091520295
:100A60008081E0915702F091580282FD1DC0908173
:100A700080915A028F5F8F7320915B02821741F041
:100A8000E0915A02F0E0EF5BFD4F958F80935A02A0
:100A9000FF91EF919F918F912F910F900BBE0F902F
:100AA0000FBE0F901F9018958081F2CF1F920F926A
:100AB0000FB60F9211242F933F938F939F93AF9371
:100AC000BF938091390290913A02A0913B02B0917C
:100AD0003C023091380223E0230F2D3758F5019660
:100AE000A11DB11D209338028093390290933A02E0
:100AF000A0933B02B0933C0280913D0290913E0254
:100B0000A0913F02B09140020196A11DB11D8093BA
:100B10003D0290933E02A0933F02B0934002BF91EA
:100B2000AF919F918F913F912F910F900FBE0F909A
:100B30001F90189526E8230F0296A11DB11DD2CF54
:100B4000789484B5826084BD84B5816084BD85B5A8
:100B5000826085BD85B5816085BD80916E008160B4
:100B600080936E001092810080918100826080935A
:100B7000810080918100816080938100809180005C
:100B80008160809380008091B10084608093B10087
:100B90008091B00081608093B0008091910082606C
:100BA0008093910080919100816080939100809169
:100BB00090008160809390008091A100826080937A
:100BC000A1008091A10081608093A1008091A0008C
:100BD00081608093A0008091210182608093210137
:100BE00080912101816080932101809120018160A9
:100BF0008093200180917A00846080937A008091B4
:100C00007A00826080937A0080917A00816080937C
:100C10007A0080917A00806880937A001092C100F7
:100C2000E0915102F091520282E08083E0914D0206
:100C3000F0914E021082E0914F02F091500280E15B
:100C4000808310925902E0915502F091560286E09D
:100C50008083E0915302F09154028081806180830F
:100C6000E0915302F0915402808188608083E0918A
:100C70005302F0915402808180688083E091530296
:100C8000F091540280818F7D808361E089E00E9431
:100C90007C0361E088E00E947C0361E084E00E94C4
:100CA0007C0361E085E00E947C0361E086E00E94B5
:100CB0007C0361E087E00E947C0361E08EE10E949A
:100CC0007C0361E089E00E947C0389E00E941C04AF
:100CD00061E088E00E947C0388E00E941C0460E0E0
:100CE0008FE10E947C0360E081E20E947C0360E06F
:100CF00083E20E947C0360E085E20E947C0360E066
:100D000087E20E947C0360E084E30E947C0360E051
:100D100086E30E947C0361E086E10E947C0361E03F
:100D200088E10E947C0361E08AE10E947C0361E02B
:100D30008CE10E947C0361E08EE10E947C0361E013
:100D400080E20E947C030E94EF0384E30E9425035B
:100D5000892B09F4C7C061E080E20E944E038FE155
:100D60000E942503892B49F18AE192E00E94D20377
:100D700061E084E00E944E0360E085E00E944E0343
:100D800061E086E00E944E0360E087E00E944E032F
:100D900061E086E10E944E0360E088E10E944E031C
:100DA00060E08AE10E944E0360E08CE10E944E0305
:100DB00060E08EE10E944E036EC081E20E94250336
:100DC000892BD1F082E292E00E94D20360E084E0BD
:100DD0000E944E0361E085E00E944E0360E086E0E1
:100DE0000E944E0361E087E00E944E0360E086E1CE
:100DF0000E944E0361E0D1CF83E20E942503892B3C
:100E0000F1F08CE292E00E94D20361E084E00E9463
:100E10004E0360E085E00E944E0360E086E00E94A1
:100E20004E0361E087E00E944E0360E086E10E948D
:100E30004E0360E088E10E944E0361E0B2CF85E29C
:100E40000E942503892B11F182E392E00E94D203D4
:100E500060E084E00E944E0361E085E00E944E0362
:100E600061E086E00E944E0360E087E00E944E034E
:100E700060E086E10E944E0360E088E10E944E033C
:100E800060E08AE10E944E0361E08FCF87E20E941A
:100E900025030E94EF030E94AD034B015C018EE627
:100EA000C82ED12CE12CF12C0E94AD0368197909D0
:100EB0008A099B09683E734081059105A8F321E0EA
:100EC000C21AD108E108F10888EE880E83E0981E66
:100ED000A11CB11CC114D104E104F10429F70E9442
:100EE0008D0233CF60E080E265CFE1E4F2E013826F
:100EF000128288EE93E0A0E0B0E084839583A6831D
:100F0000B78384E092E09183808385EC90E09587BD
:100F1000848784EC90E09787868780EC90E0918BC3
:100F2000808B81EC90E0938B828B82EC90E0958BB0
:100F3000848B86EC90E0978B868B118E128E138EAD
:100F4000148E0895EE0FFF1F881F8BBF0790F69138
:080F5000E02D1994F894FFCF85
:100F58000000000020028A01B7016D02E801C60105
:100F6800DA010D0A0053746F7000466F7277617270
:100F780064004261636B77617264730052696768E9
:080F880074004C656674000062
:00000001FF
