:100000000C944A010C947B010C947B010C947B01B1
:100010000C947B010C947B010C947B010C947B0170
:100020000C947B010C947B010C947B010C947B0160
:100030000C947B010C947B010C947B010C947B0150
:100040000C947B010C947B010C947B010C947B0140
:100050000C947B010C947B010C947B010C94C304E5
:100060000C947B010C948D040C9463040C947B0120
:100070000C947B010C947B010C947B010C947B0110
:100080000C947B010C947B010C947B010C947B0100
:100090000C947B010C947B010C947B010C947B01F0
:1000A0000C947B010C947B010C947B010C947B01E0
:1000B0000C947B010C947B010C947B010C947B01D0
:1000C0000C947B010C947B010C947B010C947B01C0
:1000D0000C947B010C947B010C947B010C947B01B0
:1000E0000C947B010C943F040C9432030C942F0469
:1000F0000C9413020C94BB030C94A3030C946002A5
:100100000C945C030C94AA010C940B040C9438031B
:100110000C9439040C94D3030C946E030C94550482
:100120000C947D010C945F040C94AF030C94470471
:100130000C94B9010C942C030C9450030C942404DB
:100140000C9465030C9420040C9492030C944304C7
:100150000C9451040C9417060C9435040C94CD01A6
:100160000C94DF030C9410040C942C040C947A036C
:100170000C945B040C94DB010C9486030C94C70371
:100180000C9444030C9428040C944D0400002100AA
:10019000240027002A002D00300033000101000058
:1001A000040107010A0100002200250028002B009D
:1001B0002E003100340002010000050108010B018E
:1001C00005050505070508080808020202020A0AD3
:1001D00008080404040401010101010101010303F1
:1001E000030303030303040707070C0C0C0C0C0C9C
:1001F0000C0C0202020206060606060606060B0B99
:100200000B0B0B0B0B0B01021020200808102040D9
:1002100010204080020102010804020101020408CA
:100220001020408080402010080402018004020158
:1002300080402010080402010804020101020408A1
:1002400010204080010204081020408000000A0BAA
:1002500002090C0D0E080703040100000000000055
:10026000000000000000000000000000000000008E
:10027000000000000000000012111000000000004B
:10028000000000000000000000000000000000006E
:100290000000170611241FBECFEFD1E2DEBFCDBF95
:1002A00000E00CBF12E0A0E0B2E0ECE9FCE000E00E
:1002B0000BBF02C007900D92A231B107D9F722E01F
:1002C000A2E1B2E001C01D92A83BB207E1F711E044
:1002D000CAE4D1E000E006C021970109802FFE01A9
:1002E0000E944406C934D10780E00807A9F70E949C
:1002F0000D050C944C060C940000AF92BF92CF9267
:10030000DF92EF92FF920F931F93CF93DF936C01D5
:100310007B018B01040F151FEB015E01AE18BF08B6
:10032000C017D10759F06991D601ED91FC91019068
:10033000F081E02DC6011995892B79F7C501DF9170
:10034000CF911F910F91FF90EF90DF90CF90BF90D2
:10035000AF900895FC01538D448D252F30E0842FFC
:1003600090E0821B930B541710F0CF9608950197DD
:100370000895FC01918D828D981761F0A28DAE0FCA
:10038000BF2FB11D5D968C91928D9F5F9F73928F51
:1003900090E008958FEF9FEF0895FC01918D828D7D
:1003A000981731F0828DE80FF11D858D90E008954A
:1003B0008FEF9FEF0895FC01918D228D892F90E0A2
:1003C000805C9F4F821B91098F73992708958BE161
:1003D00092E00E94DB0121E0892B09F420E0822FCA
:1003E0000895FC01A48DA80FB92FB11DA35ABF4FCA
:1003F0002C91848D90E001968F739927848FA68924
:10040000B7892C93A089B1898C91837080648C9377
:10041000938D848D981306C00288F389E02D808126
:100420008F7D80830895EF92FF920F931F93CF9358
:10043000DF93EC0181E0888F9B8D8C8D98131AC01F
:10044000E889F989808185FF15C09FB7F894EE8906
:10045000FF896083E889F989808183708064808363
:100460009FBF81E090E0DF91CF911F910F91FF90AE
:10047000EF900895F62E0B8D10E00F5F1F4F0F7356
:100480001127E02E8C8D8E110CC00FB607FCFACF11
:10049000E889F989808185FFF5CFCE010E94F101BD
:1004A000F1CFEB8DEC0FFD2FF11DE35AFF4FF082E2
:1004B0009FB7F8940B8FEA89FB8980818062CFCF48
:1004C000CF93DF93EC01888D8823B9F0AA89BB898B
:1004D000E889F9898C9185FD03C0808186FD0DC076
:1004E0000FB607FCF7CF8C9185FFF2CF808185FF97
:1004F000EDCFCE010E94F101E9CFDF91CF910895B8
:1005000080E090E0892B29F00E94E70181110E9490
:10051000000080E090E0892B49F080E090E0892B9A
:1005200029F00E94000081110E94000080E090E00C
:10053000892B49F080E090E0892B29F00E9400008F
:1005400081110E94000080E090E0892B49F080E05A
:1005500090E0892B29F00E94000081110C9400008A
:100560000895CF93DF9390E0FC01EA5FFD4F249163
:1005700080549E4FFC0184918823D1F090E0880F35
:10058000991FFC01E457FE4FA591B491FC01EA5577
:10059000FE4FC591D49161110EC09FB7F8948C9114
:1005A000E22FE0958E238C932881E223E8839FBF7E
:1005B000DF91CF9108958FB7F894EC91E22BEC93F3
:1005C0008FBFF6CF3FB7F894809117029091180231
:1005D000A0911902B0911A0226B5A89B05C02F3F21
:1005E00019F00196A11DB11D3FBFBA2FA92F982F59
:1005F0008827BC01CD01620F711D811D911D42E054
:10060000660F771F881F991F4A95D1F70895482FC5
:1006100050E09A01245B3D4FF9018491EFEFE80F20
:10062000E23108F0CCC0F0E08827E65EFC4F8F4F47
:100630000C9444062C033203380344035003DF03B5
:100640005C0365036E037A0386039203A303AF037F
:10065000DF03BB03C703D30384B5806884BD88E789
:1006600087BD089584B5806284BD88E788BD0895FC
:100670008091800080688093800088E790E090936C
:100680008900809388000895809180008062809323
:10069000800088E790E090938B0080938A00089513
:1006A0008091800088608093800088E790E090933C
:1006B0008D0080938C0008958091B00080688093B5
:1006C000B00088E78093B30008958091B000806205
:1006D0008093B00088E78093B400089580919000E3
:1006E00080688093900088E790E0909399008093D1
:1006F000980008958091900080628093900088E730
:1007000090E090939B0080939A00089580919000D0
:1007100088608093900088E790E090939D0080939C
:100720009C0008958091A00080688093A000809133
:10073000A0008F7B8093A00088E790E09093A900B1
:100740008093A80008958091A00080628093A0000B
:1007500088E790E09093AB008093AA000895809181
:10076000A00088608093A00088E790E09093AD009F
:100770008093AC00089580912001806880932001CF
:1007800088E790E090932901809328010895809153
:10079000200180628093200188E790E090932B01F4
:1007A00080932A0108958091200188608093200120
:1007B00088E790E090932D0180932C010895F90132
:1007C0002491FA01EA5FFD4F949140545E4FFA0183
:1007D0004491442309F433C0222311F121502231E2
:1007E000F8F4E22FF0E08827E750FC4F8F4F0C948D
:1007F000440628042C040B042004240410042F04B1
:10080000350439043F04430447044D0451041004E3
:1008100055045B045F04809180008F778093800093
:10082000E42FF0E0EE0FFF1FEA55FE4FA591B491C3
:100830008FB7F894EC9190959E239C938FBF089569
:10084000809180008F7DEACF80918000877FE6CF06
:1008500084B58F7784BDE4CF84B58F7DFBCF809145
:10086000B0008F778093B000DBCF8091B0008F7D98
:10087000F9CF809190008F7780939000D1CF8091B5
:1008800090008F7DF9CF80919000877FF5CF809188
:10089000A0008F778093A000C3CF8091A0008F7DB0
:1008A000F9CF8091A000877FF5CF809120018F77CD
:1008B00080932001B5CF809120018F7DF9CF809169
:1008C0002001877FF5CF1F920F920FB60F92112450
:1008D0000BB60F922F933F934F935F936F937F933A
:1008E0008F939F93AF93BF93EF93FF938BE192E02E
:1008F0000E94F101FF91EF91BF91AF919F918F9174
:100900007F916F915F914F913F912F910F900BBE0F
:100910000F900FBE0F901F9018951F920F920FB659
:100920000F9211240BB60F922F938F939F93EF93F7
:10093000FF93E0912B02F0912C028081E091310233
:10094000F091320282FD1DC09081809134028F5F50
:100950008F7320913502821741F0E0913402F0E06C
:10096000E55EFD4F958F80933402FF91EF919F914B
:100970008F912F910F900BBE0F900FBE0F901F9075
:1009800018958081F2CF1F920F920FB60F9211240B
:100990002F933F938F939F93AF93BF9380911302B5
:1009A00090911402A0911502B0911602309112029A
:1009B00023E0230F2D3758F50196A11DB11D20937B
:1009C00012028093130290931402A0931502B09325
:1009D00016028091170290911802A0911902B0910D
:1009E0001A020196A11DB11D80931702909318025F
:1009F000A0931902B0931A02BF91AF919F918F916A
:100A00003F912F910F900FBE0F901F90189526E8E1
:100A1000230F0296A11DB11DD2CF789484B58260B8
:100A200084BD84B5816084BD85B5826085BD85B592
:100A3000816085BD80916E00816080936E00109210
:100A4000810080918100826080938100809181008B
:100A5000816080938100809180008160809380001C
:100A60008091B10084608093B1008091B00081607A
:100A70008093B0008091910082608093910080917A
:100A800091008160809391008091900081608093BB
:100A900090008091A10082608093A1008091A100CC
:100AA00081608093A1008091A00081608093A0006C
:100AB00080912101826080932101809121018160D8
:100AC0008093210180912001816080932001809199
:100AD0007A00846080937A0080917A0082608093AB
:100AE0007A0080917A00816080937A0080917A0008
:100AF000806880937A001092C100E0912B02F091FF
:100B00002C0282E08083E0912702F091280210827B
:100B1000E0912902F0912A0280E180831092330251
:100B2000E0912F02F091300286E08083E0912D0267
:100B3000F0912E02808180618083E0912D02F091FE
:100B40002E02808188608083E0912D02F0912E0238
:100B5000808180688083E0912D02F0912E02808157
:100B60008F7D808361E089E00E94B10261E088E0CE
:100B70000E94B10261E084E00E94B10261E085E080
:100B80000E94B10261E086E00E94B10261E087E06C
:100B90000E94B10261E087E20E94B10261E089E057
:100BA0000E94B10289E00E94070361E088E00E9490
:100BB000B10288E00E94070360E08FE10E94B10269
:100BC00060E081E20E94B10260E083E20E94B10233
:100BD00060E085E20E94B10260E087E20E94B1021B
:100BE0000E94E2024B015C018EE6C82ED12CE12C62
:100BF000F12C0E94E202681979098A099B09683E72
:100C0000734081059105A8F321E0C21AD108E108DB
:100C1000F10888EE880E83E0981EA11CB11CC11457
:100C2000D104E104F10429F70E948002D9CFEBE15D
:100C3000F2E01382128288EE93E0A0E0B0E08483B9
:100C40009583A683B78384E092E09183808385ECCB
:100C500090E09587848784EC90E09787868780EC86
:100C600090E0918B808B81EC90E0938B828B82EC77
:100C700090E0958B848B86EC90E0978B868B118E21
:100C8000128E138E148E0895EE0FFF1F881F8BBFD8
:0C0C90000790F691E02D1994F894FFCF26
:100C9C000000000013027D01AA016002DB01B90112
:020CAC00CD0178
:00000001FF
